{"abi":[{"type":"function","name":"sendSignal","inputs":[{"name":"_recipient","type":"address","internalType":"address"},{"name":"_encryptedData","type":"bytes","internalType":"bytes"}],"outputs":[],"stateMutability":"nonpayable"},{"type":"event","name":"SignalSent","inputs":[{"name":"sender","type":"address","indexed":true,"internalType":"address"},{"name":"recipient","type":"address","indexed":true,"internalType":"address"},{"name":"encryptedData","type":"bytes","indexed":false,"internalType":"bytes"}],"anonymous":false}],"bytecode":{"object":"0x6080604052348015600e575f5ffd5b506102578061001c5f395ff3fe608060405234801561000f575f5ffd5b5060043610610029575f3560e01c80632c0fea4e1461002d575b5f5ffd5b61004061003b366004610168565b610042565b005b6001600160a01b0383166100b45760405162461bcd60e51b815260206004820152602e60248201527f5369676e616c5365727665723a20526563697069656e742063616e6e6f74206260448201526d65207a65726f206164647265737360901b60648201526084015b60405180910390fd5b806101165760405162461bcd60e51b815260206004820152602c60248201527f5369676e616c5365727665723a20456e6372797074656420646174612063616e60448201526b6e6f7420626520656d70747960a01b60648201526084016100ab565b826001600160a01b0316336001600160a01b03167f4f009f823691655bd060ee5858cc0513deb4846e46fccc65e42ac22a94621135848460405161015b9291906101f3565b60405180910390a3505050565b5f5f5f6040848603121561017a575f5ffd5b83356001600160a01b0381168114610190575f5ffd5b9250602084013567ffffffffffffffff8111156101ab575f5ffd5b8401601f810186136101bb575f5ffd5b803567ffffffffffffffff8111156101d1575f5ffd5b8660208284010111156101e2575f5ffd5b939660209190910195509293505050565b60208152816020820152818360408301375f818301604090810191909152601f909201601f1916010191905056fea264697066735822122066e046ddef88c0a0efba3b7d379b2f55ad7bcb6683faf64d8ec1485f109a424b64736f6c634300081c0033","linkReferences":{}},"methodIdentifiers":{"sendSignal(address,bytes)":"2c0fea4e"},"id":15}